:020000040800F2
:1000000000500020891A0008AD190008B91900082D
:10001000BF190008C5190008CB190008000000002E
:10002000000000000000000000000000D1190008DE
:10003000DD19000800000000E9190008F5190008A2
:10004000D11A0008D11A0008D11A0008D11A0008E4
:10005000D11A0008D11A0008D11A0008D11A0008D4
:10006000D11A0008D11A0008D11A0008D11A0008C4
:10007000D11A0008D11A0008D11A0008D11A0008B4
:10008000D11A0008D11A0008D11A0008D11A0008A4
:10009000D11A0008D11A0008D11A0008D11A000894
:1000A000D11A0008011A0008D11A0008D11A000854
:1000B000D11A0008D11A0008CD1C0008D11A000876
:1000C000D11A0008D11A0008D11A0008D11A000864
:1000D000D11A0008D11A0008D11A0008D11A000854
:1000E000851C0008D11A0008D11A00080000000081
:1000F0000000000000000000000000000000000000
:0C01000000000000000000005FF808F1A3
:10010C0010B5054C237833B9044B13B10448AFF345
:10011C0000800123237010BD10000020000000009F
:10012C00AC24000808B5034B1BB103490348AFF3DB
:10013C00008008BD0000000014000020AC24000862
:10014C0080B500AF084B1B68074A43F010031360DF
:10015C00032000F01FF9002000F008F801F0C8FBA4
:10016C000023184680BD00BF0020024080B582B03D
:10017C0000AF7860124B1A68124B1B7819464FF47B
:10018C007A73B3FBF1F3B2FBF3F3184600F037F9D3
:10019C000346002B01D001230EE07B680F2B0AD8FD
:1001AC00002279684FF0FF3000F0FFF8064A7B68B8
:1001BC001360002300E0012318460837BD4680BDBC
:1001CC0008000020040000200000002080B400AFD4
:1001DC00054B1B781A46054B1B681344034A1360E6
:1001EC0000BFBD4680BC70470400002040000020CA
:1001FC0080B400AF024B1B681846BD4680BC7047EC
:10020C004000002080B485B000AF78607B6803F0BC
:10021C000703FB600C4BDB68BB60BA684FF6FF034F
:10022C001340BB60FB681A02BB68134343F0BF6307
:10023C0043F40033BB60044ABB68D36000BF14377F
:10024C00BD4680BC704700BF00ED00E080B400AF3D
:10025C00044BDB681B0A03F007031846BD4680BC41
:10026C00704700BF00ED00E080B483B000AF0346E0
:10027C00FB71FB7903F01F02064997F907305B0904
:10028C00012000FA02F241F8232000BF0C37BD46D2
:10029C0080BC704700E100E080B483B000AF03463F
:1002AC003960FB7197F90730002B0BDA3B68DAB237
:1002BC000C49FB7903F00F03043B1201D2B20B443F
:1002CC001A7609E03B68DAB2074997F90730120150
:1002DC00D2B20B4483F8002300BF0C37BD4680BC60
:1002EC00704700BF00ED00E000E100E080B489B091
:1002FC0000AFF860B9607A60FB6803F00703FB613C
:10030C00FB69C3F10703042B28BF0423BB61FB6902
:10031C000433062B02D9FB69033B00E000237B610D
:10032C004FF0FF32BB6902FA03F3DA43BB681A40A1
:10033C007B699A404FF0FF317B6901FA03F3D94393
:10034C007B680B40134318462437BD4680BC70476E
:10035C0080B582B000AF78607B68013BB3F1807FE1
:10036C0001D301230FE00A4A7B68013B53600F2144
:10037C004FF0FF30FFF790FF054B00229A60044BC3
:10038C0007221A60002318460837BD4680BD00BFFF
:10039C0010E000E080B582B000AF78607868FFF7BD
:1003AC0031FF00BF0837BD4680BD80B586B000AFB9
:1003BC000346B9607A60FB7300237B61FFF746FF4D
:1003CC0078617A68B9687869FFF790FF024697F907
:1003DC000F3011461846FFF75FFF00BF1837BD46B8
:1003EC0080BD80B582B000AF0346FB7197F9073032
:1003FC001846FFF739FF00BF0837BD4680BD80B5F2
:10040C0082B000AF78607868FFF7A2FF0346184609
:10041C000837BD4680BD000080B48BB000AF78605B
:10042C0039600023FB610023BB6100237B61002347
:10043C003B6200233B6100237B6227E101227B6A44
:10044C0002FA03F3FB613B681B68FA691340BB615A
:10045C00BA69FB699A4240F016813B685B68122BC3
:10046C0034D0122B0DD8022B2BD0022B04D8002BFE
:10047C0031D0012B1CD048E0032B43D0112B1BD0C7
:10048C0043E0874A934226D0854A934206D8854A50
:10049C00934220D0844A93421DD036E0834A934243
:1004AC0019D0834A934216D0824A934213D02CE03F
:1004BC003B68DB683B6228E03B68DB6804333B62EB
:1004CC0023E03B68DB6808333B621EE03B68DB687B
:1004DC000C333B6219E03B689B68002B02D1042370
:1004EC003B6212E03B689B68012B05D108233B6201
:1004FC007B68FA691A6108E008233B627B68FA6939
:10050C005A6102E000233B6200BFBB69FF2B01D89C
:10051C007B6801E07B680433FB60BB69FF2B02D86E
:10052C007B6A9B0002E07B6A083B9B003B61FB689B
:10053C001A680F213B6901FA03F3DB431A40396A4D
:10054C003B6901FA03F31A43FB681A603B685B686A
:10055C0003F08053002B00F09680574B9B69564A52
:10056C0043F001039361544B9B6903F00103BB609F
:10057C00BB68524A7B6A9B08023352F823307B617A
:10058C007B6A03F003039B000F2202FA03F3DB43A5
:10059C007A6913407B617B68494A934213D07B682C
:1005AC00484A93420DD07B68474A934207D07B68F8
:1005BC00464A934201D1032306E0042304E00223BC
:1005CC0002E0012300E000237A6A02F003029200A9
:1005DC0093407A6913437B6138497B6A9B080233E9
:1005EC007A6941F823203B685B6803F48033002B65
:1005FC0006D0374B1A683649BB6913430B6006E0CB
:10060C00334B1A68BB69DB43314913400B603B68C1
:10061C005B6803F40033002B06D02D4B5A682C4931
:10062C00BB6913434B6006E0294B5A68BB69DB433B
:10063C00274913404B603B685B6803F48013002B25
:10064C0006D0234B9A682249BB6913438B6006E0A2
:10065C001F4B9A68BB69DB431D4913408B603B6899
:10066C005B6803F40013002B06D0194BDA681849A9
:10067C00BB691343CB6006E0154BDA68BB69DB43FF
:10068C0013491340CB607B6A01337B627B6A0F2B6F
:10069C007FF6D4AE00BF2C37BD4680BC704700BF80
:1006AC000000211000001110000012100000311089
:1006BC000000321000002210001002400000014027
:1006CC0000080140000C01400010014000140140E2
:1006DC000004014080B483B000AF78600B467B808F
:1006EC0013467B707B78002B03D07A887B681A6169
:1006FC0003E07B881A047B681A6100BF0C37BD4687
:10070C0080BC704780B586B000AF786000233B6139
:10071C007B681B6803F00103002B00F08780924B71
:10072C005B6803F00C03042B0CD08F4B5B6803F05D
:10073C000C03082B12D18C4B5B6803F48033B3F59C
:10074C00803F0BD1884B1B6803F40033002B6CD01B
:10075C007B685B68002B68D101232DE27B685B68AA
:10076C00B3F5803F06D1804B1B687F4A43F480333E
:10077C0013602EE07B685B68002B0CD17A4B1B68F6
:10078C00794A23F480331360774B1B68764A23F441
:10079C00802313601DE07B685B68B3F5A02F0CD140
:1007AC00714B1B68704A43F4802313606E4B1B68BB
:1007BC006D4A43F4803313600BE06B4B1B686A4A41
:1007CC0023F480331360684B1B68674A23F480233F
:1007DC0013607B685B68002B13D0FFF709FD386151
:1007EC0008E0FFF705FD02463B69D31A642B01D9DB
:1007FC000323E1E15C4B1B6803F40033002BF0D0C6
:10080C0014E0FFF7F5FC386108E0FFF7F1FC024655
:10081C003B69D31A642B01D90323CDE1524B1B68DE
:10082C0003F40033002BF0D100E000BF7B681B68A1
:10083C0003F00203002B63D04B4B5B6803F00C03FB
:10084C00002B0BD0484B5B6803F00C03082B1CD11E
:10085C00454B5B6803F48033002B16D1424B1B686D
:10086C0003F00203002B05D07B681B69012B01D020
:10087C000123A1E13C4B1B6823F0F8027B685B6908
:10088C00DB00394913430B603AE07B681B69002B92
:10089C0020D0364B01221A60FFF7AAFC386108E021
:1008AC00FFF7A6FC02463B69D31A022B01D903239E
:1008BC0082E12D4B1B6803F00203002BF0D02A4B76
:1008CC001B6823F0F8027B685B69DB002649134345
:1008DC000B6015E0254B00221A60FFF789FC38618C
:1008EC0008E0FFF785FC02463B69D31A022B01D9BD
:1008FC00032361E11C4B1B6803F00203002BF0D1B6
:10090C007B681B6803F00803002B39D07B689B695C
:10091C00002B19D0164B01221A60FFF769FC3861C5
:10092C0008E0FFF765FC02463B69D31A022B01D99C
:10093C00032341E10C4B5B6A03F00203002BF0D064
:10094C00012000F0BDFA1BE0094B00221A60FFF7F2
:10095C004FFC38610EE0FFF74BFC02463B69D31AA3
:10096C00022B07D9032327E100100240000042426A
:10097C0080044242924B5B6A03F00203002BEAD1E3
:10098C007B681B6803F00403002B00F0A680002397
:10099C00FB758B4BDB6903F08053002B0DD1884B1F
:1009AC00DB69874A43F08053D361854BDB6903F0E5
:1009BC008053FB60FB680123FB75824B1B6803F4BF
:1009CC008073002B18D17F4B1B687E4A43F48073D5
:1009DC001360FFF70DFC386108E0FFF709FC0246D5
:1009EC003B69D31A642B01D90323E5E0754B1B68D3
:1009FC0003F48073002BF0D07B68DB68012B06D1ED
:100A0C006F4B1B6A6E4A43F0010313622DE07B6847
:100A1C00DB68002B0CD16A4B1B6A694A23F001037B
:100A2C001362674B1B6A664A23F0040313621CE0D3
:100A3C007B68DB68052B0CD1614B1B6A604A43F069
:100A4C00040313625E4B1B6A5D4A43F0010313629D
:100A5C000BE05B4B1B6A5A4A23F001031362584BA1
:100A6C001B6A574A23F0040313627B68DB68002B74
:100A7C0015D0FFF7BDFB38610AE0FFF7B9FB024662
:100A8C003B69D31A41F28832934201D9032393E094
:100A9C004B4B1B6A03F00203002BEED014E0FFF764
:100AAC00A7FB38610AE0FFF7A3FB02463B69D31AA8
:100ABC0041F28832934201D903237DE0404B1B6AFB
:100ACC0003F00203002BEED1FB7D012B05D13C4B37
:100ADC00DB693B4A23F08053D3617B68DB69002BD5
:100AEC0069D0374B5B6803F00C03082B61D07B6833
:100AFC00DB69022B46D1344B00221A60FFF778FBDE
:100B0C00386108E0FFF774FB02463B69D31A022BED
:100B1C0001D9032350E02A4B1B6803F00073002B10
:100B2C00F0D17B681B6AB3F5803F08D1244B5B681E
:100B3C0023F400327B689B68214913434B60204BA4
:100B4C005B6823F474127B68196A7B685B6A0B43DD
:100B5C001B4913434B601C4B01221A60FFF748FBE7
:100B6C00386108E0FFF744FB02463B69D31A022BBD
:100B7C0001D9032320E0124B1B6803F00073002BF8
:100B8C00F0D018E0104B00221A60FFF731FB3861EF
:100B9C0008E0FFF72DFB02463B69D31A022B01D963
:100BAC00032309E0064B1B6803F00073002BF0D104
:100BBC0001E0012300E0002318461837BD4680BD34
:100BCC0000100240007000406000424280B584B0CA
:100BDC0000AF786039600023FB607E4B1B6803F02C
:100BEC0007033A689A4210D97A4B1B6823F0070224
:100BFC0078493B6813430B60764B1B6803F0070383
:100C0C003A689A4201D00123E0E07B681B6803F04C
:100C1C000203002B20D07B681B6803F00403002B1D
:100C2C0005D06D4B5B686C4A43F4E06353607B68A2
:100C3C001B6803F00803002B05D0674B5B68664A02
:100C4C0043F460535360644B5B6823F0F0027B68A1
:100C5C009B68614913434B607B681B6803F001037D
:100C6C00002B6AD07B685B68012B07D15A4B1B6841
:100C7C0003F40033002B15D10123A7E07B685B68DC
:100C8C00022B07D1544B1B6803F00073002B09D1C6
:100C9C0001239BE0504B1B6803F00203002B01D196
:100CAC00012393E04C4B5B6823F003027B685B6889
:100CBC00494913434B60FFF79BFAF8607B685B680C
:100CCC00012B12D10AE0FFF793FA0246FB68D31A04
:100CDC0041F28832934201D9032377E03E4B5B68A3
:100CEC0003F00C03042BEED127E07B685B68022B2E
:100CFC001DD10AE0FFF77CFA0246FB68D31A41F2D9
:100D0C008832934201D9032360E0334B5B6803F0D4
:100D1C000C03082BEED110E0FFF76AFA0246FB68D1
:100D2C00D31A41F28832934201D903234EE02A4B65
:100D3C005B6803F00C03002BEED1264B1B6803F011
:100D4C0007033A689A4210D2224B1B6823F0070221
:100D5C0020493B6813430B601E4B1B6803F00703D1
:100D6C003A689A4201D0012330E07B681B6803F09B
:100D7C000403002B08D0184B5B6823F4E0627B68FB
:100D8C00DB68154913434B607B681B6803F0080351
:100D9C00002B09D0104B5B6823F460527B681B69F5
:100DAC00DB000D4913434B6000F028F801460A4B59
:100DBC005B681B0903F00F03084AD35C21FA03F3A9
:100DCC00074A13600020FFF7D1F9002318461037AB
:100DDC00BD4680BD0020024000100240D82400080F
:100DEC000800002080B400AF034B01221A6000BF42
:100DFC00BD4680BC704700BF4C00424290B48AB0E4
:100E0C0000AF2A4B3C1D0FCB84E80F00284B1B88EE
:100E1C003B800023FB610023BB6100237B6200232A
:100E2C007B6100233B62234B5B68FB61FB6903F036
:100E3C000C03042B02D0082B03D02DE01E4B3B627D
:100E4C002DE0FB699B0C03F00F0307F12802134400
:100E5C0013F8243C7B61FB6903F48033002B13D023
:100E6C00144B5B685B0C03F0010307F1280213447D
:100E7C0013F8283CBB617B690F4A02FB03F2BB6988
:100E8C00B2FBF3F37B6204E07B690C4A02FB03F3D5
:100E9C007B627B6A3B6202E0074B3B6200BF3B6AB2
:100EAC0018462837BD4690BC704700BFC4240008C4
:100EBC00D42400080010024000127A0000093D0002
:100ECC0080B485B000AF78600A4B1B680A4AA2FB5D
:100EDC0003235B0A7A6802FB03F3FB6000BFFB6829
:100EEC005A1EFA60002BF9D100BF1437BD4680BCE6
:100EFC00704700BF08000020D34D621080B582B04F
:100F0C0000AF78607B68002B01D101231DE07B686A
:100F1C0093F83D30DBB2002B06D17B68002283F8BE
:100F2C003C20786800F016FD7B68022283F83D2097
:100F3C007B681A687B6804331946104600F05EFA29
:100F4C007B68012283F83D20002318460837BD46F4
:100F5C0080BD80B483B000AF78607B681B68DA68B2
:100F6C007B681B6842F00102DA607B681B681A68B8
:100F7C007B681B6842F001021A60002318460C378C
:100F8C00BD4680BC704780B483B000AF78607B688E
:100F9C001B68DA687B681B6822F00102DA607B68E8
:100FAC001B681A6A41F211131340002B0FD17B6896
:100FBC001B681A6A40F244431340002B07D17B682C
:100FCC001B681A687B681B6822F001021A600023F8
:100FDC0018460C37BD4680BC704780B582B000AF58
:100FEC0078607B681B681B6903F00203022B22D11B
:100FFC007B681B68DB6803F00203022B1BD17B6848
:10100C001B686FF002021A617B6801221A777B68F9
:10101C001B689B6903F00303002B03D0786800F076
:10102C00D1F905E0786800F0C4F9786800F0D3F9DC
:10103C007B6800221A777B681B681B6903F004032A
:10104C00042B22D17B681B68DB6803F00403042BA0
:10105C001BD17B681B686FF004021A617B6802224B
:10106C001A777B681B689B6903F44073002B03D0D1
:10107C00786800F0A7F905E0786800F09AF97868CC
:10108C0000F0A9F97B6800221A777B681B681B6942
:10109C0003F00803082B22D17B681B68DB6803F084
:1010AC000803082B1BD17B681B686FF008021A61C0
:1010BC007B6804221A777B681B68DB6903F00303E7
:1010CC00002B03D0786800F07DF905E0786800F01B
:1010DC0070F9786800F07FF97B6800221A777B68DA
:1010EC001B681B6903F01003102B22D17B681B6853
:1010FC00DB6803F01003102B1BD17B681B686FF0AF
:10110C0010021A617B6808221A777B681B68DB69FE
:10111C0003F44073002B03D0786800F053F905E01A
:10112C00786800F046F9786800F055F97B68002281
:10113C001A777B681B681B6903F00103012B0ED126
:10114C007B681B68DB6803F00103012B07D17B680C
:10115C001B686FF001021A61786800F021F97B6856
:10116C001B681B6903F08003802B0ED17B681B6806
:10117C00DB6803F08003802B07D17B681B686FF062
:10118C0080021A61786800F091FA7B681B681B6911
:10119C0003F04003402B0ED17B681B68DB6803F027
:1011AC004003402B07D17B681B686FF040021A612B
:1011BC00786800F019F97B681B681B6903F0200341
:1011CC00202B0ED17B681B68DB6803F02003202BDF
:1011DC0007D17B681B686FF020021A61786800F0F9
:1011EC005CFA00BF0837BD4680BD80B584B000AF47
:1011FC00786039600023FB607B6893F83C30012BEE
:10120C0001D10223C8E07B68012283F83C207B6873
:10121C00022283F83D207B681B689B68FB60FB689F
:10122C0023F07703FB60FB6823F47F43FB607B6850
:10123C001B68FA689A603B681B68402B77D0402B80
:10124C000ED8102B00F08A80102B02D8002B7ED0E9
:10125C0099E0202B00F08980302B00F08D8092E0FB
:10126C00702B16D0702B04D8502B40D0602B4ED046
:10127C0089E0B3F5805F03D0B3F5005F24D082E042
:10128C007B681B689A687B681B6822F007029A606F
:10129C0079E07B6818683B6899683B685A683B68DA
:1012AC00DB6800F095F97B681B689B68FB60FB684A
:1012BC0023F07703FB60FB6843F07703FB607B68EC
:1012CC001B68FA689A605EE07B6818683B689968EE
:1012DC003B685A683B68DB6800F07AF97B681B68EE
:1012EC009A687B681B6842F480429A604BE07B688A
:1012FC0018683B6859683B68DB681A4600F0E4F8EC
:10130C007B681B685021184600F043F93BE07B6872
:10131C0018683B6859683B68DB681A4600F006F9A8
:10132C007B681B686021184600F033F92BE07B6862
:10133C0018683B6859683B68DB681A4600F0C4F8CB
:10134C007B681B684021184600F023F91BE07B6882
:10135C001B680021184600F01CF914E07B681B6820
:10136C001021184600F015F90DE07B681B68202150
:10137C00184600F00EF906E07B681B683021184611
:10138C0000F007F900BF7B68012283F83D207B68E1
:10139C00002283F83C20002318461037BD4680BD40
:1013AC0080B483B000AF786000BF0C37BD4680BC02
:1013BC00704780B483B000AF786000BF0C37BD4677
:1013CC0080BC704780B483B000AF786000BF0C372E
:1013DC00BD4680BC704780B483B000AF786000BF5E
:1013EC000C37BD4680BC704780B483B000AF7860CA
:1013FC0000BF0C37BD4680BC7047000080B485B080
:10140C0000AF786039600023FB607B681B68FB6071
:10141C007B682A4A93420BD07B68B3F1804F07D08C
:10142C007B68274A934203D07B68264A934208D1B3
:10143C00FB6823F07003FB603B685B68FA6813433E
:10144C00FB607B681D4A93420BD07B68B3F1804FE5
:10145C0007D07B681A4A934203D07B68194A93429F
:10146C0008D1FB6823F44073FB603B68DB68FA68C7
:10147C001343FB60FB6823F08003FB603B685B69F4
:10148C00FA681343FB607B68FA681A603B689A68D9
:10149C007B68DA623B681A687B689A627B68074AE9
:1014AC00934203D13B681A697B681A637B680122FB
:1014BC005A6100BF1437BD4680BC7047002C0140F8
:1014CC00000400400008004080B487B000AFF86012
:1014DC00B9607A6000237B6100233B61FB681B6A67
:1014EC003B61FB681B6A23F00102FB681A62FB6814
:1014FC009B697B617B6923F0F0037B617B681B013B
:10150C007A6913437B613B6923F00A033B613A69B7
:10151C00BB6813433B61FB687A699A61FB683A6963
:10152C001A6200BF1C37BD4680BC704780B487B0C0
:10153C0000AFF860B9607A6000237B6100233B61E7
:10154C00FB681B6A23F01002FB681A62FB689B693C
:10155C007B61FB681B6A3B617B6923F470437B6195
:10156C007B681B037A6913437B613B6923F0A003FF
:10157C003B61BB681B013A6913433B61FB687A69A9
:10158C009A61FB683A691A6200BF1C37BD4680BC81
:10159C00704780B485B000AF78600B467B80002329
:1015AC00FB607B689B68FB60FB6823F07003FB604F
:1015BC007B8843F007039BB21A46FB681343FB601E
:1015CC007B68FA689A6000BF1437BD4680BC7047D0
:1015DC0080B487B000AFF860B9607A603B600023DC
:1015EC007B61FB689B687B617B6923F47F437B6138
:1015FC003B681A027B681A43BB6813437A6913432E
:10160C007B61FB687A699A6000BF1C37BD4680BC61
:10161C00704780B483B000AF786039607B6893F812
:10162C003C30012B01D1022332E07B68012283F88C
:10163C003C207B68022283F83D207B681B685A683B
:10164C007B681B6822F070025A607B681B685968C3
:10165C003B681A687B681B680A435A607B681B6886
:10166C009A687B681B6822F080029A607B681B6812
:10167C0099683B685A687B681B680A439A607B6868
:10168C00012283F83D207B68002283F83C20002354
:10169C0018460C37BD4680BC704780B483B000AF91
:1016AC00786000BF0C37BD4680BC704780B483B0F7
:1016BC0000AF786000BF0C37BD4680BC704700009F
:1016CC0080B584B004AFFEF73BFD00F027F800F0C6
:1016DC00BDF800F06BF8282303934FF4804302937A
:1016EC000E230193012300934FF48043084A4FF4D7
:1016FC000051074800F03EFB064B1B78092BFBD929
:10170C000A21054800F09CFA024B00221A70F3E7FC
:10171C00000C0140310000203400002080B590B056
:10172C0000AF07F1180328220021184600F0B0FE84
:10173C003B1D00221A605A609A60DA601A6101231C
:10174C00BB614FF48033FB6100233B620123BB621E
:10175C0002237B634FF48033BB634FF4E013FB63D2
:10176C0007F118031846FEF7CDFF0346002B01D0F6
:10177C0000F0B8F80F237B600223BB600023FB60F2
:10178C004FF480633B6100237B613B1D02211846B3
:10179C00FFF71CFA0346002B01D000F0A3F8FFF76B
:1017AC0021FB00BF4037BD4680BD000080B586B030
:1017BC0000AF07F1080300221A605A609A60DA60E1
:1017CC003B4600221A605A601E4B1F4A1A601D4B82
:1017DC0047225A601B4B00229A601A4B0922DA608E
:1017EC00184B00221A61174B00225A61154B00222C
:1017FC009A611448FFF782FB0346002B01D000F0DE
:10180C0071F84FF48053BB6007F1080319460D487B
:10181C00FFF7EBFC0346002B01D000F063F800232C
:10182C003B6000237B603B4619460648FFF7F1FE00
:10183C000346002B01D000F055F800BF1837BD4609
:10184C0080BD00BF44000020002C014080B588B052
:10185C0000AF07F1100300221A605A609A60DA6038
:10186C001E4B9B691D4A43F0100393611B4B9B69F4
:10187C0003F01003FB60FB68184B9B69174A43F09D
:10188C0020039361154B9B6903F02003BB60BB687D
:10189C00124B9B69114A43F0040393610F4B9B69F4
:1018AC0003F004037B607B6800224FF400510C486A
:1018BC00FEF710FF4FF400533B6101237B610023C3
:1018CC00BB610223FB6107F1100319460448FEF7C4
:1018DC00A3FD00BF2037BD4680BD00BF00100240F5
:1018EC000010014080B400AF00BFBD4680BC704703
:1018FC0080B485B000AF154B9B69144A43F00103CB
:10190C009361124B9B6903F00103BB60BB680F4BE7
:10191C00DB690E4A43F08053D3610C4BDB6903F057
:10192C0080537B607B680A4B5B68FB60FB6823F031
:10193C00E063FB60FB6843F00073FB60044AFB68E8
:10194C00536000BF1437BD4680BC70470010024086
:10195C000000014080B584B000AF78607B681B68E4
:10196C000D4A934213D10D4B9B690C4A43F400630F
:10197C0093610A4B9B6903F40063FB60FB680022D4
:10198C0000211920FEF711FD1920FEF72AFD00BFDA
:10199C001037BD4680BD00BF002C01400010024036
:1019AC0080B400AF00BFBD4680BC704780B400AFB0
:1019BC00FEE780B400AFFEE780B400AFFEE780B472
:1019CC0000AFFEE780B400AF00BFBD4680BC7047DF
:1019DC0080B400AF00BFBD4680BC704780B400AF80
:1019EC0000BFBD4680BC704780B500AFFEF7EEFB74
:1019FC0000BF80BD80B500AF044B1B680133034AA8
:101A0C0013600348FFF7E9FA00BF80BD2C000020EB
:101A1C004400002080B400AF154B1B68144A43F0FF
:101A2C0001031360124B5A681149124B13404B605F
:101A3C000F4B1B680E4A23F0847323F4803313601E
:101A4C000B4B1B680A4A23F480231360084B5B681A
:101A5C00074A23F4FE035360054B4FF41F029A60B0
:101A6C00054B4FF000629A6000BFBD4680BC7047CA
:101A7C00001002400000FFF800ED00E0002103E040
:101A8C000B4B5B58435004310A480B4B42189A429B
:101A9C00F6D30A4A02E0002342F8043B084B9A4270
:101AAC00F9D3FFF7B7FF00F0CFFCFFF709FE704743
:101ABC00F02400080000002010000020100000207E
:101ACC0084000020FEE780B588B000AFF8607A6033
:101ADC001A460B467B8113463B8101211D2000F0E9
:101AEC00BBFB7B89BB831023FB770323BB7707F1FD
:101AFC001C031946F86800F031FA7B891946F8681E
:101B0C0000F0E8FA3B89BB834823FB770323BB77C0
:101B1C0007F11C031946786800F020FA97F82C207E
:101B2C0097F828301146184600F0E2FA3B6B3B61FF
:101B3C0000233B750C237B750123BB7507F1100348
:101B4C00184600F071F97B6BDBB23B7602237B7697
:101B5C000223BB760123FB7607F11803184600F02D
:101B6C0019FB00BF2037BD4680BD000080B586B094
:101B7C0000AF03460A46FB801346BB8001210420BC
:101B8C0000F088FBFB883B82BB88BB8100237B82F7
:101B9C000023FB8107F10C0319460E4800F098FB5B
:101BAC0001210C4800F0E2FB01220121094800F060
:101BBC00EDFB1E233B7201237B720123BB720123BD
:101BCC00FB7207F10803184600F0E4FA00BF18375F
:101BDC00BD4680BD0008004080B584B000AF034610
:101BEC00FB710023FB73154B00221A60642000F07C
:101BFC00F5F80023FB7314E0FB7903F00103002BD1
:101C0C0003D00E4B01221A6002E00C4B00221A602A
:101C1C00642000F0E3F8FB795B08FB71FB7B01337C
:101C2C00FB73FB7B072BE7D9044B01221A60642062
:101C3C0000F0D4F800BF1037BD4680BDB4812142FE
:101C4C0080B584B000AF78600B46FB700023FB734B
:101C5C0009E0FB7B7A6813441B781846FFF7BCFF3E
:101C6C00FB7B0133FB73FA7BFB789A42F1D300BF09
:101C7C001037BD4680BD000080B500AF4FF48040EA
:101C8C0000F044F90346002B12D00A4B1B68002BC2
:101C9C000AD1094B1B78092B06D1074B00221A706D
:101CAC000121064800F095FB4FF4804000F048F904
:101CBC0000BF80BD388121420C000020000800408C
:101CCC0080B500AF0121254800F0A2FB0346002B94
:101CDC0042D00121214800F049FB214B1B780133F4
:101CEC00DAB21F4B1A701E4B1B78092B0FD1002137
:101CFC001A4800F06EFB1B4B1B785A1CD1B2194AC8
:101D0C0011701A46184B1978184B995424E0184B3B
:101D1C001B68002B0FD0124B1B78013B012202FADF
:101D2C0003F35AB2104B1B785BB213435BB2DAB2BB
:101D3C000D4B1A7010E00A4B1B78013B012202FA82
:101D4C0003F35BB2DB435AB2074B1B785BB2134015
:101D5C005BB2DAB2044B1A7080BD00BF00080040C1
:101D6C000C00002031000020300000203400002046
:101D7C003881214280B588B004AFF8607A601A4689
:101D8C000B467B8113463B814FF4A06000F0F0F9C9
:101D9C0000F018F83A8979897B6A03933B6A0293BD
:101DAC003B7F01933B7E009313467A68F868FFF7FC
:101DBC008AFE47216B20FFF7D9FE00BF1037BD46C6
:101DCC0080BD000080B400AF034B00221A6000BF3E
:101DDC00BD4680BC704700BF2C00002080B582B08F
:101DEC0000AF78607B68092B01D80A237B600C4B11
:101DFC0000221A600B48FFF7ACF800BF084B1A68BA
:101E0C0013469B0013445B001A467B689342F5D83B
:101E1C000448FFF7B8F800BF0837BD4680BD00BFC7
:101E2C002C0000204400002080B485B000AF786006
:101E3C000023FB60344BFB607B689B79002B4FD0FD
:101E4C00314B1A687B681B68DB432F4913400B60CE
:101E5C002D4B5A687B681B68DB432B4913404B6046
:101E6C007B681B791A46FB681344FB60FB68196896
:101E7C007B681A68FB680A431A60234B9A687B6874
:101E8C001B68DB43204913408B601F4BDA687B686F
:101E9C001B68DB431C491340CB607B685B79102BC0
:101EAC000ED1194B9A687B681B68174913438B60DA
:101EBC00154BDA687B681B6813491343CB601DE034
:101ECC00114BFB607B685B791A46FB681344FB6023
:101EDC00FB6819687B681A68FB680A431A600DE096
:101EEC007B681B791A46FB681344FB60FB68196816
:101EFC007B681B68DA43FB680A401A6000BF143722
:101F0C00BD4680BC704700BF0004014080B485B062
:101F1C0000AF78600023FB73084B5A697B68134051
:101F2C00002B02D00123FB7301E00023FB73FB7B2E
:101F3C0018461437BD4680BC704700BF00040140F2
:101F4C0080B483B000AF7860034A7B68536100BFF4
:101F5C000C37BD4680BC70470004014080B489B08A
:101F6C0000AF786039600023FB6100233B610023E4
:101F7C00BB610023FB6000237B610023BB603B68DB
:101F8C00DB7803F00F03FB613B68DB7803F0100395
:101F9C00002B05D03B689B781A46FB691343FB6109
:101FAC003B681B88DBB2002B44D07B681B687B61D1
:101FBC000023BB6138E00122BB6902FA03F3FB602A
:101FCC003B681B881A46FB6813403B613A69FB6807
:101FDC009A4226D1BB699B00FB600F22FB6802FA78
:101FEC0003F3BB60BB68DB437A6913407B61FA691E
:101FFC00FB6802FA03F37A6913437B613B68DB7875
:10200C00282B05D10122BB699A407B685A6108E0F4
:10201C003B68DB78482B04D10122BB699A407B6872
:10202C001A61BB690133BB61BB69072BC3D97B68E0
:10203C007A691A603B681B88FF2B46D97B685B6802
:10204C007B610023BB613AE0BB690833012202FAD1
:10205C0003F3FB603B681B881A46FB6813403B612B
:10206C003A69FB689A4227D1BB699B00FB600F223F
:10207C00FB6802FA03F3BB60BB68DB437A6913406D
:10208C007B61FA69FB6802FA03F37A6913437B619B
:10209C003B68DB78282B05D1BB69083301229A40B9
:1020AC007B685A613B68DB78482B05D1BB690833E8
:1020BC0001229A407B681A61BB690133BB61BB6921
:1020CC00072BC1D97B687A695A6000BF2437BD469B
:1020DC0080BC704780B483B000AF78600B467B80C7
:1020EC007A887B681A6100BF0C37BD4680BC70478C
:1020FC0080B485B000AF03460A46FB711346BB7132
:10210C000023FB60BB7903F003039B000F2202FA50
:10211C0003F3FB60154ABB799B08DBB2023352F820
:10212C002320FB68DB431148B9798908C9B21A40EE
:10213C008B1C40F823200D4ABB799B08DBB2023381
:10214C0052F82320F979BB7903F003039B0001FAC1
:10215C0003F30648B9798908C9B21A438B1C40F8B5
:10216C00232000BF1437BD4680BC704700000140DF
:10217C0080B483B000AF7860054A7B6843F0BF63DE
:10218C0043F40033D36000BF0C37BD4680BC7047AE
:10219C0000ED00E080B487B000AF786000237B6175
:1021AC0000233B610F23FB607B68DB78002B3AD06C
:1021BC00274BDB68DB431B0A03F007037B617B695E
:1021CC00C3F104033B61FA687B6922FA03F3FB60F9
:1021DC007B685B781A463B6902FA03F37B617B6888
:1021EC009B781A46FB6813407A6913437B617B69C1
:1021FC001B017B61174A7B681B787969C9B2134450
:10220C000A4683F800237B681B7803F01F031149EF
:10221C007A6812785209D2B21046012202FA03F3FC
:10222C0041F820300FE07B681B7803F01F0309494D
:10223C007A6812785209D2B2104601229A4000F103
:10224C00200341F8232000BF1C37BD4680BC7047DB
:10225C0000ED00E000E100E080B483B000AF7860F6
:10226C000B46FB70FB78002B06D0094B9A6908498A
:10227C007B6813438B6106E0054B9A697B68DB43F3
:10228C00034913408B6100BF0C37BD4680BC7047BF
:10229C000010024080B483B000AF78600B46FB7036
:1022AC00FB78002B06D0094BDA6908497B6813438D
:1022BC00CB6106E0054BDA697B68DB4303491340CD
:1022CC00CB6100BF0C37BD4680BC7047001002408C
:1022DC0080B485B000AF786039600023FB817B68E7
:1022EC001B88FB817B681E4A93420BD07B68B3F141
:1022FC00804F07D07B681B4A934203D07B681A4AF5
:10230C00934208D1FB8923F07003FB813B685A8808
:10231C00FB891343FB81FB8923F44073FB813B68EE
:10232C00DA88FB891343FB817B68FA891A803B6846
:10233C009A887B689A853B681A887B681A857B68C3
:10234C00074A934204D13B681B7A9AB27B681A867F
:10235C007B6801229A8200BF1437BD4680BC70474F
:10236C00002C0140000400400008004080B483B001
:10237C0000AF78600B467B807B88DB439AB27B682E
:10238C001A8200BF0C37BD4680BC704780B483B046
:10239C0000AF78600B467B8013467B707B78002BFC
:1023AC0008D07B689B899AB27B8813439AB27B686E
:1023BC009A8109E07B689B899AB27B88DB439BB24C
:1023CC0013409AB27B689A8100BF0C37BD4680BC23
:1023DC00704780B483B000AF78600B46FB70FB781D
:1023EC00002B08D07B681B889BB243F001039AB288
:1023FC007B681A8007E07B681B889BB223F0010383
:10240C009AB27B681A8000BF0C37BD4680BC7047FF
:10241C0080B485B000AF78600B467B800023FB73E3
:10242C007B681B8A9AB27B8813409BB2002B02D02C
:10243C000123FB7301E00023FB73FB7B184614376D
:10244C00BD4680BC7047000070B500250C4E0D4C8D
:10245C00A41BA410A54209D100F022F800250A4EB5
:10246C000A4CA41BA410A54205D170BD56F825300A
:10247C0098470135EEE756F8253098470135F2E7D5
:10248C00E8240008E8240008E8240008EC240008EC
:10249C0003460244934200D1704703F8011BF9E74D
:1024AC00F8B500BFF8BC08BC9E467047F8B500BF35
:0824BC00F8BC08BC9E46704705
:1024C40002030405060708090A0B0C0D0E0F101071
:1024D40001020000000000000000000001020304EB
:0424E40006070809D6
:0424E80031010008B6
:0424EC000D010008D6
:1024F000100000000100000000A24A0409000000D2
:0400000508001A894C
:00000001FF
